{
  "_format": "hh-sol-artifact-1",
  "contractName": "MooveDAO",
  "sourceName": "contracts/MoveDAO.sol",
  "abi": [
    {
      "inputs": [
        {
          "internalType": "address",
          "name": "_tokenAddress",
          "type": "address"
        }
      ],
      "stateMutability": "nonpayable",
      "type": "constructor"
    },
    {
      "inputs": [
        {
          "internalType": "address",
          "name": "owner",
          "type": "address"
        }
      ],
      "name": "OwnableInvalidOwner",
      "type": "error"
    },
    {
      "inputs": [
        {
          "internalType": "address",
          "name": "account",
          "type": "address"
        }
      ],
      "name": "OwnableUnauthorizedAccount",
      "type": "error"
    },
    {
      "anonymous": false,
      "inputs": [
        {
          "indexed": true,
          "internalType": "address",
          "name": "previousOwner",
          "type": "address"
        },
        {
          "indexed": true,
          "internalType": "address",
          "name": "newOwner",
          "type": "address"
        }
      ],
      "name": "OwnershipTransferred",
      "type": "event"
    },
    {
      "anonymous": false,
      "inputs": [
        {
          "indexed": true,
          "internalType": "address",
          "name": "buyer",
          "type": "address"
        },
        {
          "indexed": false,
          "internalType": "uint256",
          "name": "amount",
          "type": "uint256"
        }
      ],
      "name": "SharesBought",
      "type": "event"
    },
    {
      "inputs": [
        {
          "internalType": "uint256",
          "name": "amount",
          "type": "uint256"
        }
      ],
      "name": "buyShares",
      "outputs": [],
      "stateMutability": "nonpayable",
      "type": "function"
    },
    {
      "inputs": [
        {
          "internalType": "string",
          "name": "description",
          "type": "string"
        }
      ],
      "name": "createProposal",
      "outputs": [],
      "stateMutability": "nonpayable",
      "type": "function"
    },
    {
      "inputs": [],
      "name": "daoToken",
      "outputs": [
        {
          "internalType": "contract IERC20",
          "name": "",
          "type": "address"
        }
      ],
      "stateMutability": "view",
      "type": "function"
    },
    {
      "inputs": [
        {
          "internalType": "address",
          "name": "delegatee",
          "type": "address"
        }
      ],
      "name": "delegateVote",
      "outputs": [],
      "stateMutability": "nonpayable",
      "type": "function"
    },
    {
      "inputs": [
        {
          "internalType": "address",
          "name": "",
          "type": "address"
        }
      ],
      "name": "delegation",
      "outputs": [
        {
          "internalType": "address",
          "name": "",
          "type": "address"
        }
      ],
      "stateMutability": "view",
      "type": "function"
    },
    {
      "inputs": [
        {
          "internalType": "address",
          "name": "",
          "type": "address"
        },
        {
          "internalType": "uint256",
          "name": "",
          "type": "uint256"
        }
      ],
      "name": "delegators",
      "outputs": [
        {
          "internalType": "address",
          "name": "",
          "type": "address"
        }
      ],
      "stateMutability": "view",
      "type": "function"
    },
    {
      "inputs": [
        {
          "internalType": "uint256",
          "name": "proposalId",
          "type": "uint256"
        }
      ],
      "name": "executeProposal",
      "outputs": [],
      "stateMutability": "nonpayable",
      "type": "function"
    },
    {
      "inputs": [
        {
          "internalType": "uint256",
          "name": "proposalId",
          "type": "uint256"
        }
      ],
      "name": "getProposal",
      "outputs": [
        {
          "internalType": "string",
          "name": "",
          "type": "string"
        },
        {
          "internalType": "uint256",
          "name": "",
          "type": "uint256"
        },
        {
          "internalType": "uint256",
          "name": "",
          "type": "uint256"
        },
        {
          "internalType": "bool",
          "name": "",
          "type": "bool"
        }
      ],
      "stateMutability": "view",
      "type": "function"
    },
    {
      "inputs": [
        {
          "internalType": "uint256",
          "name": "proposalId",
          "type": "uint256"
        },
        {
          "internalType": "address",
          "name": "voter",
          "type": "address"
        }
      ],
      "name": "hasVotedAgainst",
      "outputs": [
        {
          "internalType": "bool",
          "name": "",
          "type": "bool"
        }
      ],
      "stateMutability": "view",
      "type": "function"
    },
    {
      "inputs": [
        {
          "internalType": "uint256",
          "name": "proposalId",
          "type": "uint256"
        },
        {
          "internalType": "address",
          "name": "voter",
          "type": "address"
        }
      ],
      "name": "hasVotedFor",
      "outputs": [
        {
          "internalType": "bool",
          "name": "",
          "type": "bool"
        }
      ],
      "stateMutability": "view",
      "type": "function"
    },
    {
      "inputs": [],
      "name": "owner",
      "outputs": [
        {
          "internalType": "address",
          "name": "",
          "type": "address"
        }
      ],
      "stateMutability": "view",
      "type": "function"
    },
    {
      "inputs": [
        {
          "internalType": "uint256",
          "name": "",
          "type": "uint256"
        }
      ],
      "name": "proposals",
      "outputs": [
        {
          "internalType": "string",
          "name": "description",
          "type": "string"
        },
        {
          "internalType": "uint256",
          "name": "votesFor",
          "type": "uint256"
        },
        {
          "internalType": "uint256",
          "name": "votesAgainst",
          "type": "uint256"
        },
        {
          "internalType": "bool",
          "name": "executed",
          "type": "bool"
        }
      ],
      "stateMutability": "view",
      "type": "function"
    },
    {
      "inputs": [],
      "name": "renounceOwnership",
      "outputs": [],
      "stateMutability": "nonpayable",
      "type": "function"
    },
    {
      "inputs": [],
      "name": "saleActive",
      "outputs": [
        {
          "internalType": "bool",
          "name": "",
          "type": "bool"
        }
      ],
      "stateMutability": "view",
      "type": "function"
    },
    {
      "inputs": [],
      "name": "sharePrice",
      "outputs": [
        {
          "internalType": "uint256",
          "name": "",
          "type": "uint256"
        }
      ],
      "stateMutability": "view",
      "type": "function"
    },
    {
      "inputs": [
        {
          "internalType": "address",
          "name": "",
          "type": "address"
        }
      ],
      "name": "shares",
      "outputs": [
        {
          "internalType": "uint256",
          "name": "",
          "type": "uint256"
        }
      ],
      "stateMutability": "view",
      "type": "function"
    },
    {
      "inputs": [],
      "name": "stopSale",
      "outputs": [],
      "stateMutability": "nonpayable",
      "type": "function"
    },
    {
      "inputs": [
        {
          "internalType": "address",
          "name": "newOwner",
          "type": "address"
        }
      ],
      "name": "transferOwnership",
      "outputs": [],
      "stateMutability": "nonpayable",
      "type": "function"
    },
    {
      "inputs": [
        {
          "internalType": "uint256",
          "name": "proposalId",
          "type": "uint256"
        },
        {
          "internalType": "bool",
          "name": "support",
          "type": "bool"
        }
      ],
      "name": "vote",
      "outputs": [],
      "stateMutability": "nonpayable",
      "type": "function"
    }
  ],
  "bytecode": "0x608060405260018060146101000a81548160ff0219169083151502179055503480156200002b57600080fd5b50604051620025693803806200256983398181016040528101906200005191906200024f565b33600073ffffffffffffffffffffffffffffffffffffffff168173ffffffffffffffffffffffffffffffffffffffff1603620000c75760006040517f1e4fbdf7000000000000000000000000000000000000000000000000000000008152600401620000be919062000292565b60405180910390fd5b620000d8816200012160201b60201c565b5080600160006101000a81548173ffffffffffffffffffffffffffffffffffffffff021916908373ffffffffffffffffffffffffffffffffffffffff16021790555050620002af565b60008060009054906101000a900473ffffffffffffffffffffffffffffffffffffffff169050816000806101000a81548173ffffffffffffffffffffffffffffffffffffffff021916908373ffffffffffffffffffffffffffffffffffffffff1602179055508173ffffffffffffffffffffffffffffffffffffffff168173ffffffffffffffffffffffffffffffffffffffff167f8be0079c531659141344cd1fd0a4f28419497f9722a3daafe3b4186f6b6457e060405160405180910390a35050565b600080fd5b600073ffffffffffffffffffffffffffffffffffffffff82169050919050565b60006200021782620001ea565b9050919050565b62000229816200020a565b81146200023557600080fd5b50565b60008151905062000249816200021e565b92915050565b600060208284031215620002685762000267620001e5565b5b6000620002788482850162000238565b91505092915050565b6200028c816200020a565b82525050565b6000602082019050620002a9600083018462000281565b92915050565b6122aa80620002bf6000396000f3fe608060405234801561001057600080fd5b50600436106101215760003560e01c806387269729116100ad578063ce7c2ac211610071578063ce7c2ac21461030e578063d1a93d181461033e578063e36b0b371461035a578063eed50a3214610364578063f2fde38b1461039457610121565b806387269729146102675780638da5cb5b14610285578063b31e1d4d146102a3578063c7f758a8146102bf578063c9d27afe146102f257610121565b80634bdac5a4116100f45780634bdac5a4146101af57806368428a1b146101df5780636f6f5809146101fd578063715018a61461022d578063728fe08a1461023757610121565b8063013cf08b146101265780630d61b519146101595780634914b0301461017557806349c2a1a614610193575b600080fd5b610140600480360381019061013b9190611497565b6103b0565b604051610150949392919061157e565b60405180910390f35b610173600480360381019061016e9190611497565b610485565b005b61017d610568565b60405161018a9190611649565b60405180910390f35b6101ad60048036038101906101a89190611799565b61058e565b005b6101c960048036038101906101c49190611820565b61067b565b6040516101d69190611860565b60405180910390f35b6101e7610758565b6040516101f49190611860565b60405180910390f35b6102176004803603810190610212919061187b565b61076b565b60405161022491906118ca565b60405180910390f35b6102356107b9565b005b610251600480360381019061024c9190611820565b6107cd565b60405161025e9190611860565b60405180910390f35b61026f6108aa565b60405161027c91906118e5565b60405180910390f35b61028d6108b6565b60405161029a91906118ca565b60405180910390f35b6102bd60048036038101906102b89190611900565b6108df565b005b6102d960048036038101906102d49190611497565b610af0565b6040516102e9949392919061157e565b60405180910390f35b61030c60048036038101906103079190611959565b610bd8565b005b61032860048036038101906103239190611900565b611014565b60405161033591906118e5565b60405180910390f35b61035860048036038101906103539190611497565b61102c565b005b61036261121c565b005b61037e60048036038101906103799190611900565b611241565b60405161038b91906118ca565b60405180910390f35b6103ae60048036038101906103a99190611900565b611274565b005b600281815481106103c057600080fd5b90600052602060002090600602016000915090508060000180546103e3906119c8565b80601f016020809104026020016040519081016040528092919081815260200182805461040f906119c8565b801561045c5780601f106104315761010080835404028352916020019161045c565b820191906000526020600020905b81548152906001019060200180831161043f57829003601f168201915b5050505050908060010154908060020154908060030160009054906101000a900460ff16905084565b60006002828154811061049b5761049a6119f9565b5b906000526020600020906006020190508060030160009054906101000a900460ff16156104fd576040517f08c379a00000000000000000000000000000000000000000000000000000000081526004016104f490611a74565b60405180910390fd5b8060020154816001015411610547576040517f08c379a000000000000000000000000000000000000000000000000000000000815260040161053e90611ae0565b60405180910390fd5b60018160030160006101000a81548160ff0219169083151502179055505050565b600160009054906101000a900473ffffffffffffffffffffffffffffffffffffffff1681565b6000600360003373ffffffffffffffffffffffffffffffffffffffff1673ffffffffffffffffffffffffffffffffffffffff1681526020019081526020016000205411610610576040517f08c379a000000000000000000000000000000000000000000000000000000000815260040161060790611b72565b60405180910390fd5b600260018160018154018082558091505003906000526020600020905050600060016002805490506106429190611bc1565b90508160028281548110610659576106586119f9565b5b906000526020600020906006020160000190816106769190611d97565b505050565b60008060028481548110610692576106916119f9565b5b906000526020600020906006020190508060040160008473ffffffffffffffffffffffffffffffffffffffff1673ffffffffffffffffffffffffffffffffffffffff16815260200190815260200160002060009054906101000a900460ff16801561074f5750600115158160050160008573ffffffffffffffffffffffffffffffffffffffff1673ffffffffffffffffffffffffffffffffffffffff16815260200190815260200160002060009054906101000a900460ff161515145b91505092915050565b600160149054906101000a900460ff1681565b6005602052816000526040600020818154811061078757600080fd5b906000526020600020016000915091509054906101000a900473ffffffffffffffffffffffffffffffffffffffff1681565b6107c16112fa565b6107cb6000611381565b565b600080600284815481106107e4576107e36119f9565b5b906000526020600020906006020190508060040160008473ffffffffffffffffffffffffffffffffffffffff1673ffffffffffffffffffffffffffffffffffffffff16815260200190815260200160002060009054906101000a900460ff1680156108a15750600015158160050160008573ffffffffffffffffffffffffffffffffffffffff1673ffffffffffffffffffffffffffffffffffffffff16815260200190815260200160002060009054906101000a900460ff161515145b91505092915050565b678ac7230489e8000081565b60008060009054906101000a900473ffffffffffffffffffffffffffffffffffffffff16905090565b6000600360003373ffffffffffffffffffffffffffffffffffffffff1673ffffffffffffffffffffffffffffffffffffffff1681526020019081526020016000205411610961576040517f08c379a000000000000000000000000000000000000000000000000000000000815260040161095890611edb565b60405180910390fd5b3373ffffffffffffffffffffffffffffffffffffffff168173ffffffffffffffffffffffffffffffffffffffff16036109cf576040517f08c379a00000000000000000000000000000000000000000000000000000000081526004016109c690611f47565b60405180910390fd5b80600460003373ffffffffffffffffffffffffffffffffffffffff1673ffffffffffffffffffffffffffffffffffffffff16815260200190815260200160002060006101000a81548173ffffffffffffffffffffffffffffffffffffffff021916908373ffffffffffffffffffffffffffffffffffffffff160217905550600560008273ffffffffffffffffffffffffffffffffffffffff1673ffffffffffffffffffffffffffffffffffffffff168152602001908152602001600020339080600181540180825580915050600190039060005260206000200160009091909190916101000a81548173ffffffffffffffffffffffffffffffffffffffff021916908373ffffffffffffffffffffffffffffffffffffffff16021790555050565b606060008060008060028681548110610b0c57610b0b6119f9565b5b9060005260206000209060060201905080600001816001015482600201548360030160009054906101000a900460ff16838054610b48906119c8565b80601f0160208091040260200160405190810160405280929190818152602001828054610b74906119c8565b8015610bc15780601f10610b9657610100808354040283529160200191610bc1565b820191906000526020600020905b815481529060010190602001808311610ba457829003601f168201915b505050505093509450945094509450509193509193565b600060028381548110610bee57610bed6119f9565b5b906000526020600020906006020190508060040160003373ffffffffffffffffffffffffffffffffffffffff1673ffffffffffffffffffffffffffffffffffffffff16815260200190815260200160002060009054906101000a900460ff1615610c8d576040517f08c379a0000000000000000000000000000000000000000000000000000000008152600401610c8490611fb3565b60405180910390fd5b6000600360003373ffffffffffffffffffffffffffffffffffffffff1673ffffffffffffffffffffffffffffffffffffffff1681526020019081526020016000205490506000600560003373ffffffffffffffffffffffffffffffffffffffff1673ffffffffffffffffffffffffffffffffffffffff168152602001908152602001600020805480602002602001604051908101604052809291908181526020018280548015610d9257602002820191906000526020600020905b8160009054906101000a900473ffffffffffffffffffffffffffffffffffffffff1673ffffffffffffffffffffffffffffffffffffffff1681526020019060010190808311610d48575b5050505050905060005b8151811015610e79576000828281518110610dba57610db96119f9565b5b602002602001015190508460040160008273ffffffffffffffffffffffffffffffffffffffff1673ffffffffffffffffffffffffffffffffffffffff16815260200190815260200160002060009054906101000a900460ff16610e6557600360008273ffffffffffffffffffffffffffffffffffffffff1673ffffffffffffffffffffffffffffffffffffffff1681526020019081526020016000205484610e629190611fd3565b93505b508080610e7190612007565b915050610d9c565b5060008211610ebd576040517f08c379a0000000000000000000000000000000000000000000000000000000008152600401610eb49061209b565b60405180910390fd5b8315610f3d5781836001016000828254610ed79190611fd3565b9250508190555060018360050160003373ffffffffffffffffffffffffffffffffffffffff1673ffffffffffffffffffffffffffffffffffffffff16815260200190815260200160002060006101000a81548160ff021916908315150217905550610fb3565b81836002016000828254610f519190611fd3565b9250508190555060008360050160003373ffffffffffffffffffffffffffffffffffffffff1673ffffffffffffffffffffffffffffffffffffffff16815260200190815260200160002060006101000a81548160ff0219169083151502179055505b60018360040160003373ffffffffffffffffffffffffffffffffffffffff1673ffffffffffffffffffffffffffffffffffffffff16815260200190815260200160002060006101000a81548160ff0219169083151502179055505050505050565b60036020528060005260406000206000915090505481565b600160149054906101000a900460ff1661107b576040517f08c379a00000000000000000000000000000000000000000000000000000000081526004016110729061212d565b60405180910390fd5b6000678ac7230489e8000082611091919061214d565b9050600160009054906101000a900473ffffffffffffffffffffffffffffffffffffffff1673ffffffffffffffffffffffffffffffffffffffff166323b872dd3330846040518463ffffffff1660e01b81526004016110f29392919061218f565b6020604051808303816000875af1158015611111573d6000803e3d6000fd5b505050506040513d601f19601f8201168201806040525081019061113591906121db565b611174576040517f08c379a000000000000000000000000000000000000000000000000000000000815260040161116b90612254565b60405180910390fd5b81600360003373ffffffffffffffffffffffffffffffffffffffff1673ffffffffffffffffffffffffffffffffffffffff16815260200190815260200160002060008282546111c39190611fd3565b925050819055503373ffffffffffffffffffffffffffffffffffffffff167f2b6fa6b8279eb0f7d69e4bab60ce5f4cdc476c1e1696c7a74610ad014657ca098360405161121091906118e5565b60405180910390a25050565b6112246112fa565b6000600160146101000a81548160ff021916908315150217905550565b60046020528060005260406000206000915054906101000a900473ffffffffffffffffffffffffffffffffffffffff1681565b61127c6112fa565b600073ffffffffffffffffffffffffffffffffffffffff168173ffffffffffffffffffffffffffffffffffffffff16036112ee5760006040517f1e4fbdf70000000000000000000000000000000000000000000000000000000081526004016112e591906118ca565b60405180910390fd5b6112f781611381565b50565b611302611445565b73ffffffffffffffffffffffffffffffffffffffff166113206108b6565b73ffffffffffffffffffffffffffffffffffffffff161461137f57611343611445565b6040517f118cdaa700000000000000000000000000000000000000000000000000000000815260040161137691906118ca565b60405180910390fd5b565b60008060009054906101000a900473ffffffffffffffffffffffffffffffffffffffff169050816000806101000a81548173ffffffffffffffffffffffffffffffffffffffff021916908373ffffffffffffffffffffffffffffffffffffffff1602179055508173ffffffffffffffffffffffffffffffffffffffff168173ffffffffffffffffffffffffffffffffffffffff167f8be0079c531659141344cd1fd0a4f28419497f9722a3daafe3b4186f6b6457e060405160405180910390a35050565b600033905090565b6000604051905090565b600080fd5b600080fd5b6000819050919050565b61147481611461565b811461147f57600080fd5b50565b6000813590506114918161146b565b92915050565b6000602082840312156114ad576114ac611457565b5b60006114bb84828501611482565b91505092915050565b600081519050919050565b600082825260208201905092915050565b60005b838110156114fe5780820151818401526020810190506114e3565b60008484015250505050565b6000601f19601f8301169050919050565b6000611526826114c4565b61153081856114cf565b93506115408185602086016114e0565b6115498161150a565b840191505092915050565b61155d81611461565b82525050565b60008115159050919050565b61157881611563565b82525050565b60006080820190508181036000830152611598818761151b565b90506115a76020830186611554565b6115b46040830185611554565b6115c1606083018461156f565b95945050505050565b600073ffffffffffffffffffffffffffffffffffffffff82169050919050565b6000819050919050565b600061160f61160a611605846115ca565b6115ea565b6115ca565b9050919050565b6000611621826115f4565b9050919050565b600061163382611616565b9050919050565b61164381611628565b82525050565b600060208201905061165e600083018461163a565b92915050565b600080fd5b600080fd5b7f4e487b7100000000000000000000000000000000000000000000000000000000600052604160045260246000fd5b6116a68261150a565b810181811067ffffffffffffffff821117156116c5576116c461166e565b5b80604052505050565b60006116d861144d565b90506116e4828261169d565b919050565b600067ffffffffffffffff8211156117045761170361166e565b5b61170d8261150a565b9050602081019050919050565b82818337600083830152505050565b600061173c611737846116e9565b6116ce565b90508281526020810184848401111561175857611757611669565b5b61176384828561171a565b509392505050565b600082601f8301126117805761177f611664565b5b8135611790848260208601611729565b91505092915050565b6000602082840312156117af576117ae611457565b5b600082013567ffffffffffffffff8111156117cd576117cc61145c565b5b6117d98482850161176b565b91505092915050565b60006117ed826115ca565b9050919050565b6117fd816117e2565b811461180857600080fd5b50565b60008135905061181a816117f4565b92915050565b6000806040838503121561183757611836611457565b5b600061184585828601611482565b92505060206118568582860161180b565b9150509250929050565b6000602082019050611875600083018461156f565b92915050565b6000806040838503121561189257611891611457565b5b60006118a08582860161180b565b92505060206118b185828601611482565b9150509250929050565b6118c4816117e2565b82525050565b60006020820190506118df60008301846118bb565b92915050565b60006020820190506118fa6000830184611554565b92915050565b60006020828403121561191657611915611457565b5b60006119248482850161180b565b91505092915050565b61193681611563565b811461194157600080fd5b50565b6000813590506119538161192d565b92915050565b600080604083850312156119705761196f611457565b5b600061197e85828601611482565b925050602061198f85828601611944565b9150509250929050565b7f4e487b7100000000000000000000000000000000000000000000000000000000600052602260045260246000fd5b600060028204905060018216806119e057607f821691505b6020821081036119f3576119f2611999565b5b50919050565b7f4e487b7100000000000000000000000000000000000000000000000000000000600052603260045260246000fd5b7f50726f706f737461206769612720657365677569746100000000000000000000600082015250565b6000611a5e6016836114cf565b9150611a6982611a28565b602082019050919050565b60006020820190508181036000830152611a8d81611a51565b9050919050565b7f50726f706f737461206e6f6e20617070726f7661746100000000000000000000600082015250565b6000611aca6016836114cf565b9150611ad582611a94565b602082019050919050565b60006020820190508181036000830152611af981611abd565b9050919050565b7f4465766920706f7373656465726520617a696f6e69207065722070726f706f7260008201527f7265000000000000000000000000000000000000000000000000000000000000602082015250565b6000611b5c6022836114cf565b9150611b6782611b00565b604082019050919050565b60006020820190508181036000830152611b8b81611b4f565b9050919050565b7f4e487b7100000000000000000000000000000000000000000000000000000000600052601160045260246000fd5b6000611bcc82611461565b9150611bd783611461565b9250828203905081811115611bef57611bee611b92565b5b92915050565b60008190508160005260206000209050919050565b60006020601f8301049050919050565b600082821b905092915050565b600060088302611c577fffffffffffffffffffffffffffffffffffffffffffffffffffffffffffffffff82611c1a565b611c618683611c1a565b95508019841693508086168417925050509392505050565b6000611c94611c8f611c8a84611461565b6115ea565b611461565b9050919050565b6000819050919050565b611cae83611c79565b611cc2611cba82611c9b565b848454611c27565b825550505050565b600090565b611cd7611cca565b611ce2818484611ca5565b505050565b5b81811015611d0657611cfb600082611ccf565b600181019050611ce8565b5050565b601f821115611d4b57611d1c81611bf5565b611d2584611c0a565b81016020851015611d34578190505b611d48611d4085611c0a565b830182611ce7565b50505b505050565b600082821c905092915050565b6000611d6e60001984600802611d50565b1980831691505092915050565b6000611d878383611d5d565b9150826002028217905092915050565b611da0826114c4565b67ffffffffffffffff811115611db957611db861166e565b5b611dc382546119c8565b611dce828285611d0a565b600060209050601f831160018114611e015760008415611def578287015190505b611df98582611d7b565b865550611e61565b601f198416611e0f86611bf5565b60005b82811015611e3757848901518255600182019150602085019450602081019050611e12565b86831015611e545784890151611e50601f891682611d5d565b8355505b6001600288020188555050505b505050505050565b7f4465766920706f7373656465726520617a696f6e69207065722064656c65676160008201527f7265000000000000000000000000000000000000000000000000000000000000602082015250565b6000611ec56022836114cf565b9150611ed082611e69565b604082019050919050565b60006020820190508181036000830152611ef481611eb8565b9050919050565b7f4e6f6e2070756f692064656c656761726520612074652073746573736f000000600082015250565b6000611f31601d836114cf565b9150611f3c82611efb565b602082019050919050565b60006020820190508181036000830152611f6081611f24565b9050919050565b7f486169206769612720766f7461746f0000000000000000000000000000000000600082015250565b6000611f9d600f836114cf565b9150611fa882611f67565b602082019050919050565b60006020820190508181036000830152611fcc81611f90565b9050919050565b6000611fde82611461565b9150611fe983611461565b925082820190508082111561200157612000611b92565b5b92915050565b600061201282611461565b91507fffffffffffffffffffffffffffffffffffffffffffffffffffffffffffffffff820361204457612043611b92565b5b600182019050919050565b7f4e657373756e20706f7465726520646920766f746f0000000000000000000000600082015250565b60006120856015836114cf565b91506120908261204f565b602082019050919050565b600060208201905081810360008301526120b481612078565b9050919050565b7f4c612076656e6469746120646920617a696f6e69206527207465726d696e617460008201527f6100000000000000000000000000000000000000000000000000000000000000602082015250565b60006121176021836114cf565b9150612122826120bb565b604082019050919050565b600060208201905081810360008301526121468161210a565b9050919050565b600061215882611461565b915061216383611461565b925082820261217181611461565b9150828204841483151761218857612187611b92565b5b5092915050565b60006060820190506121a460008301866118bb565b6121b160208301856118bb565b6121be6040830184611554565b949350505050565b6000815190506121d58161192d565b92915050565b6000602082840312156121f1576121f0611457565b5b60006121ff848285016121c6565b91505092915050565b7f5472616e73666572206661696c65640000000000000000000000000000000000600082015250565b600061223e600f836114cf565b915061224982612208565b602082019050919050565b6000602082019050818103600083015261226d81612231565b905091905056fea2646970667358221220a93682a82d1ad85ff6c9f7c8d42155a82629459afc01535f2c57dc441a03c3f664736f6c63430008140033",
  "linkReferences": {},
  "deployedLinkReferences": {}
}